{
  "fileName": "DragonereumGalaxies.sol",
  "contractName": "DragonereumGalaxies",
  "source": "pragma solidity 0.6.11;\n\nimport \"@openzeppelin/contracts-ethereum-package/contracts/access/Ownable.sol\";\nimport \"@openzeppelin/contracts-ethereum-package/contracts/token/ERC20/IERC20.sol\";\nimport \"@openzeppelin/contracts-ethereum-package/contracts/math/SafeMath.sol\";\n\ncontract DragonereumGalaxies is OwnableUpgradeSafe {\n    using SafeMath for uint256;\n\n    IERC20 public goldToken;\n\n    uint256 public constant CREATION_PRICE = 10000 ether; // 10,000 GOLD\n    uint256 public constant DEPLOYMENT_PRICE = 1000000 ether; // 1,000,000 GOLD\n    address private constant BURN_ADDRESS = 0x0000000000000000000000000000000000000001;\n    uint256 public constant FUNDING_DURATION = 90 days;\n\n    struct Galaxy {\n        string name;\n        string description;\n        string icon;\n    }\n    Galaxy[] galaxies;\n    mapping (string => uint256) public idsByNames;\n    mapping (uint256 => uint256) public galaxiesCreationTimestamps;\n    mapping (uint256 => uint256) public galaxiesBalances;\n    mapping (uint256 => bool) public destroyedGalaxies;\n    mapping (uint256 => bool) public deployedGalaxies;\n    mapping (uint256 => bool) public pausedGalaxies;\n    mapping (uint256 => mapping (address => uint256)) public galaxiesContributorsBalances;\n\n    modifier validId(uint256 _id) {\n        require(_id != 0 && _id < galaxies.length, \"the galaxy with this id doesn't exist\");\n        _;\n    }\n\n    modifier validName(string memory _name) {\n        require(idsByNames[_name] == 0, \"the galaxy with this name already exists\");\n        _;\n    }\n\n    modifier notDeployed(uint256 _id) {\n        require(!deployedGalaxies[_id], \"the galaxy is deployed\");\n        _;\n    }\n\n    modifier notDestroyed(uint256 _id) {\n        require(!destroyedGalaxies[_id], \"the galaxy is destroyed\");\n        _;\n    }\n\n    function initialize(address _goldToken, address _owner) external initializer {\n        __Ownable_init();\n        transferOwnership(_owner);\n        goldToken = IERC20(_goldToken);\n        galaxies.push(Galaxy(\"\", \"\", \"\"));\n        idsByNames[\"\"] = 0;\n    }\n\n    function createGalaxy(string memory _name, string memory _description) public {\n        createGalaxy(_name, _description, \"\");\n    }\n\n    function createGalaxy(string memory _name, string memory _description, string memory _icon) public validName(_name) {\n        goldToken.transferFrom(msg.sender, address(this), CREATION_PRICE);\n        galaxies.push(Galaxy(_name, _description, _icon));\n        uint256 id = galaxies.length.sub(1);\n        idsByNames[_name] = id;\n        galaxiesContributorsBalances[id][msg.sender] = CREATION_PRICE;\n        galaxiesBalances[id] = CREATION_PRICE;\n        // solium-disable-next-line security/no-block-members\n        galaxiesCreationTimestamps[id] = block.timestamp;\n    }\n\n    function fundGalaxy(uint256 _id, uint256 _amount) external validId(_id) notDeployed(_id) notDestroyed(_id) {\n        require(!pausedGalaxies[_id], \"the galaxy funding is paused\");\n        goldToken.transferFrom(msg.sender, address(this), _amount);\n        galaxiesContributorsBalances[_id][msg.sender] = galaxiesContributorsBalances[_id][msg.sender].add(_amount);\n        galaxiesBalances[_id] = galaxiesBalances[_id].add(_amount);\n    }\n\n    function destroyGalaxy(uint256 _id) external validId(_id) notDeployed(_id) onlyOwner {\n        destroyedGalaxies[_id] = true;\n    }\n\n    function deployGalaxy(uint256 _id) external validId(_id) notDestroyed(_id) onlyOwner {\n        uint256 galaxyBalance = galaxiesBalances[_id];\n        require(galaxyBalance >= DEPLOYMENT_PRICE, \"not enough funding\");\n        goldToken.transfer(BURN_ADDRESS, galaxyBalance);\n        deployedGalaxies[_id] = true;\n    }\n\n    function updateGalaxy(\n        uint256 _id,\n        string calldata _name,\n        string calldata _description,\n        string calldata _icon\n    ) external validId(_id) validName(_name) onlyOwner {\n        galaxies[_id] = Galaxy(_name, _description, _icon);\n    }\n\n    function pauseFunding(uint256 _id) external validId(_id) onlyOwner {\n        pausedGalaxies[_id] = true;\n    }\n\n    function unpauseFunding(uint256 _id) external validId(_id) onlyOwner {\n        pausedGalaxies[_id] = false;\n    }\n\n    function returnFunds(uint256 _id) external validId(_id) notDeployed(_id) {\n        require(\n            // solium-disable-next-line security/no-block-members\n            destroyedGalaxies[_id] || galaxiesCreationTimestamps[_id].add(FUNDING_DURATION) < block.timestamp,\n            \"funds are still locked\"\n        );\n        uint256 userBalance = galaxiesContributorsBalances[_id][msg.sender];\n        require(userBalance > 0, \"nothing to return\");\n        goldToken.transfer(msg.sender, userBalance);\n        galaxiesContributorsBalances[_id][msg.sender] = 0;\n        galaxiesBalances[_id] = galaxiesBalances[_id].sub(userBalance);\n    }\n\n    function getGalaxy(uint256 _id) external view validId(_id) returns (\n        string memory name,\n        string memory description,\n        string memory icon\n    ) {\n        return (galaxies[_id].name, galaxies[_id].description, galaxies[_id].icon);\n    }\n}\n",
  "sourcePath": "contracts/DragonereumGalaxies.sol",
  "abi": [
    {
      "anonymous": false,
      "inputs": [
        {
          "indexed": true,
          "internalType": "address",
          "name": "previousOwner",
          "type": "address"
        },
        {
          "indexed": true,
          "internalType": "address",
          "name": "newOwner",
          "type": "address"
        }
      ],
      "name": "OwnershipTransferred",
      "type": "event"
    },
    {
      "inputs": [],
      "name": "CREATION_PRICE",
      "outputs": [
        {
          "internalType": "uint256",
          "name": "",
          "type": "uint256"
        }
      ],
      "stateMutability": "view",
      "type": "function"
    },
    {
      "inputs": [],
      "name": "DEPLOYMENT_PRICE",
      "outputs": [
        {
          "internalType": "uint256",
          "name": "",
          "type": "uint256"
        }
      ],
      "stateMutability": "view",
      "type": "function"
    },
    {
      "inputs": [],
      "name": "FUNDING_DURATION",
      "outputs": [
        {
          "internalType": "uint256",
          "name": "",
          "type": "uint256"
        }
      ],
      "stateMutability": "view",
      "type": "function"
    },
    {
      "inputs": [
        {
          "internalType": "string",
          "name": "_name",
          "type": "string"
        },
        {
          "internalType": "string",
          "name": "_description",
          "type": "string"
        }
      ],
      "name": "createGalaxy",
      "outputs": [],
      "stateMutability": "nonpayable",
      "type": "function"
    },
    {
      "inputs": [
        {
          "internalType": "string",
          "name": "_name",
          "type": "string"
        },
        {
          "internalType": "string",
          "name": "_description",
          "type": "string"
        },
        {
          "internalType": "string",
          "name": "_icon",
          "type": "string"
        }
      ],
      "name": "createGalaxy",
      "outputs": [],
      "stateMutability": "nonpayable",
      "type": "function"
    },
    {
      "inputs": [
        {
          "internalType": "uint256",
          "name": "_id",
          "type": "uint256"
        }
      ],
      "name": "deployGalaxy",
      "outputs": [],
      "stateMutability": "nonpayable",
      "type": "function"
    },
    {
      "inputs": [
        {
          "internalType": "uint256",
          "name": "",
          "type": "uint256"
        }
      ],
      "name": "deployedGalaxies",
      "outputs": [
        {
          "internalType": "bool",
          "name": "",
          "type": "bool"
        }
      ],
      "stateMutability": "view",
      "type": "function"
    },
    {
      "inputs": [
        {
          "internalType": "uint256",
          "name": "_id",
          "type": "uint256"
        }
      ],
      "name": "destroyGalaxy",
      "outputs": [],
      "stateMutability": "nonpayable",
      "type": "function"
    },
    {
      "inputs": [
        {
          "internalType": "uint256",
          "name": "",
          "type": "uint256"
        }
      ],
      "name": "destroyedGalaxies",
      "outputs": [
        {
          "internalType": "bool",
          "name": "",
          "type": "bool"
        }
      ],
      "stateMutability": "view",
      "type": "function"
    },
    {
      "inputs": [
        {
          "internalType": "uint256",
          "name": "_id",
          "type": "uint256"
        },
        {
          "internalType": "uint256",
          "name": "_amount",
          "type": "uint256"
        }
      ],
      "name": "fundGalaxy",
      "outputs": [],
      "stateMutability": "nonpayable",
      "type": "function"
    },
    {
      "inputs": [
        {
          "internalType": "uint256",
          "name": "",
          "type": "uint256"
        }
      ],
      "name": "galaxiesBalances",
      "outputs": [
        {
          "internalType": "uint256",
          "name": "",
          "type": "uint256"
        }
      ],
      "stateMutability": "view",
      "type": "function"
    },
    {
      "inputs": [
        {
          "internalType": "uint256",
          "name": "",
          "type": "uint256"
        },
        {
          "internalType": "address",
          "name": "",
          "type": "address"
        }
      ],
      "name": "galaxiesContributorsBalances",
      "outputs": [
        {
          "internalType": "uint256",
          "name": "",
          "type": "uint256"
        }
      ],
      "stateMutability": "view",
      "type": "function"
    },
    {
      "inputs": [
        {
          "internalType": "uint256",
          "name": "",
          "type": "uint256"
        }
      ],
      "name": "galaxiesCreationTimestamps",
      "outputs": [
        {
          "internalType": "uint256",
          "name": "",
          "type": "uint256"
        }
      ],
      "stateMutability": "view",
      "type": "function"
    },
    {
      "inputs": [
        {
          "internalType": "uint256",
          "name": "_id",
          "type": "uint256"
        }
      ],
      "name": "getGalaxy",
      "outputs": [
        {
          "internalType": "string",
          "name": "name",
          "type": "string"
        },
        {
          "internalType": "string",
          "name": "description",
          "type": "string"
        },
        {
          "internalType": "string",
          "name": "icon",
          "type": "string"
        }
      ],
      "stateMutability": "view",
      "type": "function"
    },
    {
      "inputs": [],
      "name": "goldToken",
      "outputs": [
        {
          "internalType": "contract IERC20",
          "name": "",
          "type": "address"
        }
      ],
      "stateMutability": "view",
      "type": "function"
    },
    {
      "inputs": [
        {
          "internalType": "string",
          "name": "",
          "type": "string"
        }
      ],
      "name": "idsByNames",
      "outputs": [
        {
          "internalType": "uint256",
          "name": "",
          "type": "uint256"
        }
      ],
      "stateMutability": "view",
      "type": "function"
    },
    {
      "inputs": [
        {
          "internalType": "address",
          "name": "_goldToken",
          "type": "address"
        },
        {
          "internalType": "address",
          "name": "_owner",
          "type": "address"
        }
      ],
      "name": "initialize",
      "outputs": [],
      "stateMutability": "nonpayable",
      "type": "function"
    },
    {
      "inputs": [],
      "name": "owner",
      "outputs": [
        {
          "internalType": "address",
          "name": "",
          "type": "address"
        }
      ],
      "stateMutability": "view",
      "type": "function"
    },
    {
      "inputs": [
        {
          "internalType": "uint256",
          "name": "_id",
          "type": "uint256"
        }
      ],
      "name": "pauseFunding",
      "outputs": [],
      "stateMutability": "nonpayable",
      "type": "function"
    },
    {
      "inputs": [
        {
          "internalType": "uint256",
          "name": "",
          "type": "uint256"
        }
      ],
      "name": "pausedGalaxies",
      "outputs": [
        {
          "internalType": "bool",
          "name": "",
          "type": "bool"
        }
      ],
      "stateMutability": "view",
      "type": "function"
    },
    {
      "inputs": [],
      "name": "renounceOwnership",
      "outputs": [],
      "stateMutability": "nonpayable",
      "type": "function"
    },
    {
      "inputs": [
        {
          "internalType": "uint256",
          "name": "_id",
          "type": "uint256"
        }
      ],
      "name": "returnFunds",
      "outputs": [],
      "stateMutability": "nonpayable",
      "type": "function"
    },
    {
      "inputs": [
        {
          "internalType": "address",
          "name": "newOwner",
          "type": "address"
        }
      ],
      "name": "transferOwnership",
      "outputs": [],
      "stateMutability": "nonpayable",
      "type": "function"
    },
    {
      "inputs": [
        {
          "internalType": "uint256",
          "name": "_id",
          "type": "uint256"
        }
      ],
      "name": "unpauseFunding",
      "outputs": [],
      "stateMutability": "nonpayable",
      "type": "function"
    },
    {
      "inputs": [
        {
          "internalType": "uint256",
          "name": "_id",
          "type": "uint256"
        },
        {
          "internalType": "string",
          "name": "_name",
          "type": "string"
        },
        {
          "internalType": "string",
          "name": "_description",
          "type": "string"
        },
        {
          "internalType": "string",
          "name": "_icon",
          "type": "string"
        }
      ],
      "name": "updateGalaxy",
      "outputs": [],
      "stateMutability": "nonpayable",
      "type": "function"
    }
  ],
  "bytecode": "0x608060405234801561001057600080fd5b5061355d806100206000396000f3fe608060405234801561001057600080fd5b50600436106101735760003560e01c80637a38efc4116100de578063b4a9edc411610097578063ca0b15b011610071578063ca0b15b0146108df578063d1042cf014610a31578063e38ef47e14610c1a578063f2fde38b14610c6057610173565b8063b4a9edc414610839578063baceacb01461087b578063c3e0387f1461089957610173565b80637a38efc41461066c57806385669c061461068a5780638da5cb5b146106a857806394002b57146106f2578063af3fbf3f1461073c578063b28a49081461076a57610173565b806342ac08931161013057806342ac08931461041b5780634361b4f81461054857806345755dd61461058a578063485cc955146105b857806367bb2b591461061c578063715018a61461066257610173565b80630950e02e146101785780630b1b81ea146101a65780631bde275e146102085780631e3b92b41461023657806321c0f794146103b55780634144dcb2146103e3575b600080fd5b6101a46004803603602081101561018e57600080fd5b8101908080359060200190929190505050610ca4565b005b6101f2600480360360408110156101bc57600080fd5b8101908080359060200190929190803573ffffffffffffffffffffffffffffffffffffffff169060200190929190505050610e9f565b6040518082815260200191505060405180910390f35b6102346004803603602081101561021e57600080fd5b8101908080359060200190929190505050610ec4565b005b6102626004803603602081101561024c57600080fd5b8101908080359060200190929190505050611029565b60405180806020018060200180602001848103845287818151815260200191508051906020019080838360005b838110156102aa57808201518184015260208101905061028f565b50505050905090810190601f1680156102d75780820380516001836020036101000a031916815260200191505b50848103835286818151815260200191508051906020019080838360005b838110156103105780820151818401526020810190506102f5565b50505050905090810190601f16801561033d5780820380516001836020036101000a031916815260200191505b50848103825285818151815260200191508051906020019080838360005b8381101561037657808201518184015260208101905061035b565b50505050905090810190601f1680156103a35780820380516001836020036101000a031916815260200191505b50965050505050505060405180910390f35b6103e1600480360360208110156103cb57600080fd5b81019080803590602001909291905050506112d5565b005b610419600480360360408110156103f957600080fd5b81019080803590602001909291908035906020019092919050505061143a565b005b6105466004803603608081101561043157600080fd5b81019080803590602001909291908035906020019064010000000081111561045857600080fd5b82018360208201111561046a57600080fd5b8035906020019184600183028401116401000000008311171561048c57600080fd5b9091929391929390803590602001906401000000008111156104ad57600080fd5b8201836020820111156104bf57600080fd5b803590602001918460018302840111640100000000831117156104e157600080fd5b90919293919293908035906020019064010000000081111561050257600080fd5b82018360208201111561051457600080fd5b8035906020019184600183028401116401000000008311171561053657600080fd5b9091929391929390505050611877565b005b6105746004803603602081101561055e57600080fd5b8101908080359060200190929190505050611c1a565b6040518082815260200191505060405180910390f35b6105b6600480360360208110156105a057600080fd5b8101908080359060200190929190505050611c32565b005b61061a600480360360408110156105ce57600080fd5b81019080803573ffffffffffffffffffffffffffffffffffffffff169060200190929190803573ffffffffffffffffffffffffffffffffffffffff169060200190929190505050612040565b005b6106486004803603602081101561063257600080fd5b810190808035906020019092919050505061227e565b604051808215151515815260200191505060405180910390f35b61066a61229e565b005b610674612429565b6040518082815260200191505060405180910390f35b610692612437565b6040518082815260200191505060405180910390f35b6106b061243e565b604051808273ffffffffffffffffffffffffffffffffffffffff1673ffffffffffffffffffffffffffffffffffffffff16815260200191505060405180910390f35b6106fa612468565b604051808273ffffffffffffffffffffffffffffffffffffffff1673ffffffffffffffffffffffffffffffffffffffff16815260200191505060405180910390f35b6107686004803603602081101561075257600080fd5b810190808035906020019092919050505061248e565b005b6108236004803603602081101561078057600080fd5b810190808035906020019064010000000081111561079d57600080fd5b8201836020820111156107af57600080fd5b803590602001918460018302840111640100000000831117156107d157600080fd5b91908080601f016020809104026020016040519081016040528093929190818152602001838380828437600081840152601f19601f820116905080830192505050505050509192919290505050612808565b6040518082815260200191505060405180910390f35b6108656004803603602081101561084f57600080fd5b8101908080359060200190929190505050612836565b6040518082815260200191505060405180910390f35b61088361284e565b6040518082815260200191505060405180910390f35b6108c5600480360360208110156108af57600080fd5b810190808035906020019092919050505061285c565b604051808215151515815260200191505060405180910390f35b610a2f600480360360408110156108f557600080fd5b810190808035906020019064010000000081111561091257600080fd5b82018360208201111561092457600080fd5b8035906020019184600183028401116401000000008311171561094657600080fd5b91908080601f016020809104026020016040519081016040528093929190818152602001838380828437600081840152601f19601f820116905080830192505050505050509192919290803590602001906401000000008111156109a957600080fd5b8201836020820111156109bb57600080fd5b803590602001918460018302840111640100000000831117156109dd57600080fd5b91908080601f016020809104026020016040519081016040528093929190818152602001838380828437600081840152601f19601f82011690508083019250505050505050919291929050505061287c565b005b610c1860048036036060811015610a4757600080fd5b8101908080359060200190640100000000811115610a6457600080fd5b820183602082011115610a7657600080fd5b80359060200191846001830284011164010000000083111715610a9857600080fd5b91908080601f016020809104026020016040519081016040528093929190818152602001838380828437600081840152601f19601f82011690508083019250505050505050919291929080359060200190640100000000811115610afb57600080fd5b820183602082011115610b0d57600080fd5b80359060200191846001830284011164010000000083111715610b2f57600080fd5b91908080601f016020809104026020016040519081016040528093929190818152602001838380828437600081840152601f19601f82011690508083019250505050505050919291929080359060200190640100000000811115610b9257600080fd5b820183602082011115610ba457600080fd5b80359060200191846001830284011164010000000083111715610bc657600080fd5b91908080601f016020809104026020016040519081016040528093929190818152602001838380828437600081840152601f19601f82011690508083019250505050505050919291929050505061289a565b005b610c4660048036036020811015610c3057600080fd5b8101908080359060200190929190505050612c4a565b604051808215151515815260200191505060405180910390f35b610ca260048036036020811015610c7657600080fd5b81019080803573ffffffffffffffffffffffffffffffffffffffff169060200190929190505050612c6a565b005b8060008114158015610cba575060988054905081105b610d0f576040517f08c379a00000000000000000000000000000000000000000000000000000000081526004018080602001828103825260258152602001806134ad6025913960400191505060405180910390fd5b81609d600082815260200190815260200160002060009054906101000a900460ff1615610da4576040517f08c379a00000000000000000000000000000000000000000000000000000000081526004018080602001828103825260168152602001807f7468652067616c617879206973206465706c6f7965640000000000000000000081525060200191505060405180910390fd5b610dac612e7a565b73ffffffffffffffffffffffffffffffffffffffff16606560009054906101000a900473ffffffffffffffffffffffffffffffffffffffff1673ffffffffffffffffffffffffffffffffffffffff1614610e6e576040517f08c379a00000000000000000000000000000000000000000000000000000000081526004018080602001828103825260208152602001807f4f776e61626c653a2063616c6c6572206973206e6f7420746865206f776e657281525060200191505060405180910390fd5b6001609c600085815260200190815260200160002060006101000a81548160ff021916908315150217905550505050565b609f602052816000526040600020602052806000526040600020600091509150505481565b8060008114158015610eda575060988054905081105b610f2f576040517f08c379a00000000000000000000000000000000000000000000000000000000081526004018080602001828103825260258152602001806134ad6025913960400191505060405180910390fd5b610f37612e7a565b73ffffffffffffffffffffffffffffffffffffffff16606560009054906101000a900473ffffffffffffffffffffffffffffffffffffffff1673ffffffffffffffffffffffffffffffffffffffff1614610ff9576040517f08c379a00000000000000000000000000000000000000000000000000000000081526004018080602001828103825260208152602001807f4f776e61626c653a2063616c6c6572206973206e6f7420746865206f776e657281525060200191505060405180910390fd5b6001609e600084815260200190815260200160002060006101000a81548160ff0219169083151502179055505050565b60608060608360008114158015611044575060988054905081105b611099576040517f08c379a00000000000000000000000000000000000000000000000000000000081526004018080602001828103825260258152602001806134ad6025913960400191505060405180910390fd5b609885815481106110a657fe5b9060005260206000209060030201600001609886815481106110c457fe5b9060005260206000209060030201600101609887815481106110e257fe5b9060005260206000209060030201600201828054600181600116156101000203166002900480601f0160208091040260200160405190810160405280929190818152602001828054600181600116156101000203166002900480156111885780601f1061115d57610100808354040283529160200191611188565b820191906000526020600020905b81548152906001019060200180831161116b57829003601f168201915b50505050509250818054600181600116156101000203166002900480601f0160208091040260200160405190810160405280929190818152602001828054600181600116156101000203166002900480156112245780601f106111f957610100808354040283529160200191611224565b820191906000526020600020905b81548152906001019060200180831161120757829003601f168201915b50505050509150808054600181600116156101000203166002900480601f0160208091040260200160405190810160405280929190818152602001828054600181600116156101000203166002900480156112c05780601f10611295576101008083540402835291602001916112c0565b820191906000526020600020905b8154815290600101906020018083116112a357829003601f168201915b50505050509050935093509350509193909250565b80600081141580156112eb575060988054905081105b611340576040517f08c379a00000000000000000000000000000000000000000000000000000000081526004018080602001828103825260258152602001806134ad6025913960400191505060405180910390fd5b611348612e7a565b73ffffffffffffffffffffffffffffffffffffffff16606560009054906101000a900473ffffffffffffffffffffffffffffffffffffffff1673ffffffffffffffffffffffffffffffffffffffff161461140a576040517f08c379a00000000000000000000000000000000000000000000000000000000081526004018080602001828103825260208152602001807f4f776e61626c653a2063616c6c6572206973206e6f7420746865206f776e657281525060200191505060405180910390fd5b6000609e600084815260200190815260200160002060006101000a81548160ff0219169083151502179055505050565b8160008114158015611450575060988054905081105b6114a5576040517f08c379a00000000000000000000000000000000000000000000000000000000081526004018080602001828103825260258152602001806134ad6025913960400191505060405180910390fd5b82609d600082815260200190815260200160002060009054906101000a900460ff161561153a576040517f08c379a00000000000000000000000000000000000000000000000000000000081526004018080602001828103825260168152602001807f7468652067616c617879206973206465706c6f7965640000000000000000000081525060200191505060405180910390fd5b83609c600082815260200190815260200160002060009054906101000a900460ff16156115cf576040517f08c379a00000000000000000000000000000000000000000000000000000000081526004018080602001828103825260178152602001807f7468652067616c6178792069732064657374726f79656400000000000000000081525060200191505060405180910390fd5b609e600086815260200190815260200160002060009054906101000a900460ff1615611663576040517f08c379a000000000000000000000000000000000000000000000000000000000815260040180806020018281038252601c8152602001807f7468652067616c6178792066756e64696e67206973207061757365640000000081525060200191505060405180910390fd5b609760009054906101000a900473ffffffffffffffffffffffffffffffffffffffff1673ffffffffffffffffffffffffffffffffffffffff166323b872dd3330876040518463ffffffff1660e01b8152600401808473ffffffffffffffffffffffffffffffffffffffff1673ffffffffffffffffffffffffffffffffffffffff1681526020018373ffffffffffffffffffffffffffffffffffffffff1673ffffffffffffffffffffffffffffffffffffffff1681526020018281526020019350505050602060405180830381600087803b15801561174057600080fd5b505af1158015611754573d6000803e3d6000fd5b505050506040513d602081101561176a57600080fd5b8101908080519060200190929190505050506117df84609f600088815260200190815260200160002060003373ffffffffffffffffffffffffffffffffffffffff1673ffffffffffffffffffffffffffffffffffffffff16815260200190815260200160002054612e8290919063ffffffff16565b609f600087815260200190815260200160002060003373ffffffffffffffffffffffffffffffffffffffff1673ffffffffffffffffffffffffffffffffffffffff1681526020019081526020016000208190555061185984609b600088815260200190815260200160002054612e8290919063ffffffff16565b609b6000878152602001908152602001600020819055505050505050565b866000811415801561188d575060988054905081105b6118e2576040517f08c379a00000000000000000000000000000000000000000000000000000000081526004018080602001828103825260258152602001806134ad6025913960400191505060405180910390fd5b86868080601f016020809104026020016040519081016040528093929190818152602001838380828437600081840152601f19601f8201169050808301925050505050505060006099826040518082805190602001908083835b6020831061195f578051825260208201915060208101905060208303925061193c565b6001836020036101000a038019825116818451168082178552505050505050905001915050908152602001604051809103902054146119e9576040517f08c379a00000000000000000000000000000000000000000000000000000000081526004018080602001828103825260288152602001806135006028913960400191505060405180910390fd5b6119f1612e7a565b73ffffffffffffffffffffffffffffffffffffffff16606560009054906101000a900473ffffffffffffffffffffffffffffffffffffffff1673ffffffffffffffffffffffffffffffffffffffff1614611ab3576040517f08c379a00000000000000000000000000000000000000000000000000000000081526004018080602001828103825260208152602001807f4f776e61626c653a2063616c6c6572206973206e6f7420746865206f776e657281525060200191505060405180910390fd5b604051806060016040528089898080601f016020809104026020016040519081016040528093929190818152602001838380828437600081840152601f19601f82011690508083019250505050505050815260200187878080601f016020809104026020016040519081016040528093929190818152602001838380828437600081840152601f19601f82011690508083019250505050505050815260200185858080601f016020809104026020016040519081016040528093929190818152602001838380828437600081840152601f19601f8201169050808301925050505050505081525060988a81548110611ba757fe5b90600052602060002090600302016000820151816000019080519060200190611bd19291906133e1565b506020820151816001019080519060200190611bee9291906133e1565b506040820151816002019080519060200190611c0b9291906133e1565b50905050505050505050505050565b609b6020528060005260406000206000915090505481565b8060008114158015611c48575060988054905081105b611c9d576040517f08c379a00000000000000000000000000000000000000000000000000000000081526004018080602001828103825260258152602001806134ad6025913960400191505060405180910390fd5b81609d600082815260200190815260200160002060009054906101000a900460ff1615611d32576040517f08c379a00000000000000000000000000000000000000000000000000000000081526004018080602001828103825260168152602001807f7468652067616c617879206973206465706c6f7965640000000000000000000081525060200191505060405180910390fd5b609c600084815260200190815260200160002060009054906101000a900460ff1680611d85575042611d836276a700609a600087815260200190815260200160002054612e8290919063ffffffff16565b105b611df7576040517f08c379a00000000000000000000000000000000000000000000000000000000081526004018080602001828103825260168152602001807f66756e647320617265207374696c6c206c6f636b65640000000000000000000081525060200191505060405180910390fd5b6000609f600085815260200190815260200160002060003373ffffffffffffffffffffffffffffffffffffffff1673ffffffffffffffffffffffffffffffffffffffff16815260200190815260200160002054905060008111611ec2576040517f08c379a00000000000000000000000000000000000000000000000000000000081526004018080602001828103825260118152602001807f6e6f7468696e6720746f2072657475726e00000000000000000000000000000081525060200191505060405180910390fd5b609760009054906101000a900473ffffffffffffffffffffffffffffffffffffffff1673ffffffffffffffffffffffffffffffffffffffff1663a9059cbb33836040518363ffffffff1660e01b8152600401808373ffffffffffffffffffffffffffffffffffffffff1673ffffffffffffffffffffffffffffffffffffffff16815260200182815260200192505050602060405180830381600087803b158015611f6b57600080fd5b505af1158015611f7f573d6000803e3d6000fd5b505050506040513d6020811015611f9557600080fd5b8101908080519060200190929190505050506000609f600086815260200190815260200160002060003373ffffffffffffffffffffffffffffffffffffffff1673ffffffffffffffffffffffffffffffffffffffff1681526020019081526020016000208190555061202381609b600087815260200190815260200160002054612f0a90919063ffffffff16565b609b60008681526020019081526020016000208190555050505050565b600060019054906101000a900460ff168061205f575061205e612f54565b5b8061207657506000809054906101000a900460ff16155b6120cb576040517f08c379a000000000000000000000000000000000000000000000000000000000815260040180806020018281038252602e8152602001806134d2602e913960400191505060405180910390fd5b60008060019054906101000a900460ff16159050801561211b576001600060016101000a81548160ff02191690831515021790555060016000806101000a81548160ff0219169083151502179055505b612123612f6b565b61212c82612c6a565b82609760006101000a81548173ffffffffffffffffffffffffffffffffffffffff021916908373ffffffffffffffffffffffffffffffffffffffff1602179055506098604051806060016040528060405180602001604052806000815250815260200160405180602001604052806000815250815260200160405180602001604052806000815250815250908060018154018082558091505060019003906000526020600020906003020160009091909190915060008201518160000190805190602001906121fc9291906133e1565b5060208201518160010190805190602001906122199291906133e1565b5060408201518160020190805190602001906122369291906133e1565b5050506000609960405180600001905090815260200160405180910390208190555080156122795760008060016101000a81548160ff0219169083151502179055505b505050565b609d6020528060005260406000206000915054906101000a900460ff1681565b6122a6612e7a565b73ffffffffffffffffffffffffffffffffffffffff16606560009054906101000a900473ffffffffffffffffffffffffffffffffffffffff1673ffffffffffffffffffffffffffffffffffffffff1614612368576040517f08c379a00000000000000000000000000000000000000000000000000000000081526004018080602001828103825260208152602001807f4f776e61626c653a2063616c6c6572206973206e6f7420746865206f776e657281525060200191505060405180910390fd5b600073ffffffffffffffffffffffffffffffffffffffff16606560009054906101000a900473ffffffffffffffffffffffffffffffffffffffff1673ffffffffffffffffffffffffffffffffffffffff167f8be0079c531659141344cd1fd0a4f28419497f9722a3daafe3b4186f6b6457e060405160405180910390a36000606560006101000a81548173ffffffffffffffffffffffffffffffffffffffff021916908373ffffffffffffffffffffffffffffffffffffffff160217905550565b69021e19e0c9bab240000081565b6276a70081565b6000606560009054906101000a900473ffffffffffffffffffffffffffffffffffffffff16905090565b609760009054906101000a900473ffffffffffffffffffffffffffffffffffffffff1681565b80600081141580156124a4575060988054905081105b6124f9576040517f08c379a00000000000000000000000000000000000000000000000000000000081526004018080602001828103825260258152602001806134ad6025913960400191505060405180910390fd5b81609c600082815260200190815260200160002060009054906101000a900460ff161561258e576040517f08c379a00000000000000000000000000000000000000000000000000000000081526004018080602001828103825260178152602001807f7468652067616c6178792069732064657374726f79656400000000000000000081525060200191505060405180910390fd5b612596612e7a565b73ffffffffffffffffffffffffffffffffffffffff16606560009054906101000a900473ffffffffffffffffffffffffffffffffffffffff1673ffffffffffffffffffffffffffffffffffffffff1614612658576040517f08c379a00000000000000000000000000000000000000000000000000000000081526004018080602001828103825260208152602001807f4f776e61626c653a2063616c6c6572206973206e6f7420746865206f776e657281525060200191505060405180910390fd5b6000609b600085815260200190815260200160002054905069d3c21bcecceda10000008110156126f0576040517f08c379a00000000000000000000000000000000000000000000000000000000081526004018080602001828103825260128152602001807f6e6f7420656e6f7567682066756e64696e67000000000000000000000000000081525060200191505060405180910390fd5b609760009054906101000a900473ffffffffffffffffffffffffffffffffffffffff1673ffffffffffffffffffffffffffffffffffffffff1663a9059cbb6001836040518363ffffffff1660e01b8152600401808373ffffffffffffffffffffffffffffffffffffffff1673ffffffffffffffffffffffffffffffffffffffff16815260200182815260200192505050602060405180830381600087803b15801561279a57600080fd5b505af11580156127ae573d6000803e3d6000fd5b505050506040513d60208110156127c457600080fd5b8101908080519060200190929190505050506001609d600086815260200190815260200160002060006101000a81548160ff02191690831515021790555050505050565b6099818051602081018201805184825260208301602085012081835280955050505050506000915090505481565b609a6020528060005260406000206000915090505481565b69d3c21bcecceda100000081565b609e6020528060005260406000206000915054906101000a900460ff1681565b61289682826040518060200160405280600081525061289a565b5050565b8260006099826040518082805190602001908083835b602083106128d357805182526020820191506020810190506020830392506128b0565b6001836020036101000a0380198251168184511680821785525050505050509050019150509081526020016040518091039020541461295d576040517f08c379a00000000000000000000000000000000000000000000000000000000081526004018080602001828103825260288152602001806135006028913960400191505060405180910390fd5b609760009054906101000a900473ffffffffffffffffffffffffffffffffffffffff1673ffffffffffffffffffffffffffffffffffffffff166323b872dd333069021e19e0c9bab24000006040518463ffffffff1660e01b8152600401808473ffffffffffffffffffffffffffffffffffffffff1673ffffffffffffffffffffffffffffffffffffffff1681526020018373ffffffffffffffffffffffffffffffffffffffff1673ffffffffffffffffffffffffffffffffffffffff1681526020018281526020019350505050602060405180830381600087803b158015612a4457600080fd5b505af1158015612a58573d6000803e3d6000fd5b505050506040513d6020811015612a6e57600080fd5b810190808051906020019092919050505050609860405180606001604052808681526020018581526020018481525090806001815401808255809150506001900390600052602060002090600302016000909190919091506000820151816000019080519060200190612ae29291906133e1565b506020820151816001019080519060200190612aff9291906133e1565b506040820151816002019080519060200190612b1c9291906133e1565b5050506000612b3a6001609880549050612f0a90919063ffffffff16565b9050806099866040518082805190602001908083835b60208310612b735780518252602082019150602081019050602083039250612b50565b6001836020036101000a03801982511681845116808217855250505050505090500191505090815260200160405180910390208190555069021e19e0c9bab2400000609f600083815260200190815260200160002060003373ffffffffffffffffffffffffffffffffffffffff1673ffffffffffffffffffffffffffffffffffffffff1681526020019081526020016000208190555069021e19e0c9bab2400000609b60008381526020019081526020016000208190555042609a6000838152602001908152602001600020819055505050505050565b609c6020528060005260406000206000915054906101000a900460ff1681565b612c72612e7a565b73ffffffffffffffffffffffffffffffffffffffff16606560009054906101000a900473ffffffffffffffffffffffffffffffffffffffff1673ffffffffffffffffffffffffffffffffffffffff1614612d34576040517f08c379a00000000000000000000000000000000000000000000000000000000081526004018080602001828103825260208152602001807f4f776e61626c653a2063616c6c6572206973206e6f7420746865206f776e657281525060200191505060405180910390fd5b600073ffffffffffffffffffffffffffffffffffffffff168173ffffffffffffffffffffffffffffffffffffffff161415612dba576040517f08c379a00000000000000000000000000000000000000000000000000000000081526004018080602001828103825260268152602001806134876026913960400191505060405180910390fd5b8073ffffffffffffffffffffffffffffffffffffffff16606560009054906101000a900473ffffffffffffffffffffffffffffffffffffffff1673ffffffffffffffffffffffffffffffffffffffff167f8be0079c531659141344cd1fd0a4f28419497f9722a3daafe3b4186f6b6457e060405160405180910390a380606560006101000a81548173ffffffffffffffffffffffffffffffffffffffff021916908373ffffffffffffffffffffffffffffffffffffffff16021790555050565b600033905090565b600080828401905083811015612f00576040517f08c379a000000000000000000000000000000000000000000000000000000000815260040180806020018281038252601b8152602001807f536166654d6174683a206164646974696f6e206f766572666c6f77000000000081525060200191505060405180910390fd5b8091505092915050565b6000612f4c83836040518060400160405280601e81526020017f536166654d6174683a207375627472616374696f6e206f766572666c6f77000081525061307a565b905092915050565b6000803090506000813b9050600081149250505090565b600060019054906101000a900460ff1680612f8a5750612f89612f54565b5b80612fa157506000809054906101000a900460ff16155b612ff6576040517f08c379a000000000000000000000000000000000000000000000000000000000815260040180806020018281038252602e8152602001806134d2602e913960400191505060405180910390fd5b60008060019054906101000a900460ff161590508015613046576001600060016101000a81548160ff02191690831515021790555060016000806101000a81548160ff0219169083151502179055505b61304e61313a565b613056613239565b80156130775760008060016101000a81548160ff0219169083151502179055505b50565b6000838311158290613127576040517f08c379a00000000000000000000000000000000000000000000000000000000081526004018080602001828103825283818151815260200191508051906020019080838360005b838110156130ec5780820151818401526020810190506130d1565b50505050905090810190601f1680156131195780820380516001836020036101000a031916815260200191505b509250505060405180910390fd5b5060008385039050809150509392505050565b600060019054906101000a900460ff16806131595750613158612f54565b5b8061317057506000809054906101000a900460ff16155b6131c5576040517f08c379a000000000000000000000000000000000000000000000000000000000815260040180806020018281038252602e8152602001806134d2602e913960400191505060405180910390fd5b60008060019054906101000a900460ff161590508015613215576001600060016101000a81548160ff02191690831515021790555060016000806101000a81548160ff0219169083151502179055505b80156132365760008060016101000a81548160ff0219169083151502179055505b50565b600060019054906101000a900460ff16806132585750613257612f54565b5b8061326f57506000809054906101000a900460ff16155b6132c4576040517f08c379a000000000000000000000000000000000000000000000000000000000815260040180806020018281038252602e8152602001806134d2602e913960400191505060405180910390fd5b60008060019054906101000a900460ff161590508015613314576001600060016101000a81548160ff02191690831515021790555060016000806101000a81548160ff0219169083151502179055505b600061331e612e7a565b905080606560006101000a81548173ffffffffffffffffffffffffffffffffffffffff021916908373ffffffffffffffffffffffffffffffffffffffff1602179055508073ffffffffffffffffffffffffffffffffffffffff16600073ffffffffffffffffffffffffffffffffffffffff167f8be0079c531659141344cd1fd0a4f28419497f9722a3daafe3b4186f6b6457e060405160405180910390a35080156133de5760008060016101000a81548160ff0219169083151502179055505b50565b828054600181600116156101000203166002900490600052602060002090601f016020900481019282601f1061342257805160ff1916838001178555613450565b82800160010185558215613450579182015b8281111561344f578251825591602001919060010190613434565b5b50905061345d9190613461565b5090565b61348391905b8082111561347f576000816000905550600101613467565b5090565b9056fe4f776e61626c653a206e6577206f776e657220697320746865207a65726f20616464726573737468652067616c6178792077697468207468697320696420646f65736e2774206578697374436f6e747261637420696e7374616e63652068617320616c7265616479206265656e20696e697469616c697a65647468652067616c61787920776974682074686973206e616d6520616c726561647920657869737473a26469706673582212203148c04dbfcae56e15e9b9b1377c9ec4055d76b25ceecfd1750fd35facbf5fc464736f6c634300060b0033",
  "compiler": {
    "name": "solc",
    "version": "0.6.11+commit.5ef660b1.Emscripten.clang",
    "optimizer": {
      "enabled": false,
      "runs": 200
    },
    "evmVersion": "petersburg"
  }
}